{
  "contractName": "CertificateContract",
  "abi": [
    {
      "anonymous": false,
      "inputs": [
        {
          "indexed": true,
          "internalType": "address",
          "name": "owner",
          "type": "address"
        },
        {
          "indexed": true,
          "internalType": "bytes32",
          "name": "hash",
          "type": "bytes32"
        },
        {
          "indexed": false,
          "internalType": "uint256",
          "name": "timestamp",
          "type": "uint256"
        }
      ],
      "name": "CertificateCreated",
      "type": "event"
    },
    {
      "anonymous": false,
      "inputs": [
        {
          "indexed": true,
          "internalType": "address",
          "name": "owner",
          "type": "address"
        },
        {
          "indexed": true,
          "internalType": "bytes32",
          "name": "hash",
          "type": "bytes32"
        },
        {
          "indexed": false,
          "internalType": "uint256",
          "name": "timestamp",
          "type": "uint256"
        }
      ],
      "name": "CertificateValidated",
      "type": "event"
    },
    {
      "inputs": [
        {
          "internalType": "address",
          "name": "userAddress",
          "type": "address"
        },
        {
          "internalType": "string",
          "name": "cid",
          "type": "string"
        },
        {
          "internalType": "bytes32",
          "name": "hash",
          "type": "bytes32"
        }
      ],
      "name": "addCertificate",
      "outputs": [],
      "stateMutability": "nonpayable",
      "type": "function"
    },
    {
      "inputs": [
        {
          "internalType": "address",
          "name": "userAddress",
          "type": "address"
        },
        {
          "internalType": "uint256",
          "name": "page",
          "type": "uint256"
        },
        {
          "internalType": "uint256",
          "name": "perPage",
          "type": "uint256"
        }
      ],
      "name": "getCertificates",
      "outputs": [
        {
          "components": [
            {
              "internalType": "string",
              "name": "cid",
              "type": "string"
            },
            {
              "internalType": "address",
              "name": "owner",
              "type": "address"
            },
            {
              "internalType": "uint256",
              "name": "timestamp",
              "type": "uint256"
            }
          ],
          "internalType": "struct CertificateContract.file[]",
          "name": "",
          "type": "tuple[]"
        }
      ],
      "stateMutability": "view",
      "type": "function",
      "constant": true
    },
    {
      "inputs": [
        {
          "internalType": "address",
          "name": "userAddress",
          "type": "address"
        },
        {
          "internalType": "bytes32",
          "name": "hash",
          "type": "bytes32"
        }
      ],
      "name": "validateCertificate",
      "outputs": [],
      "stateMutability": "nonpayable",
      "type": "function"
    }
  ],
  "bytecode": "0x608060405234801561001057600080fd5b50611446806100206000396000f3fe608060405234801561001057600080fd5b50600436106100415760003560e01c806354e72b591461004657806379b81bcf14610076578063ae13dbc314610092575b600080fd5b610060600480360381019061005b9190610967565b6100ae565b60405161006d9190610b7a565b60405180910390f35b610090600480360381019061008b9190610bd2565b6103f0565b005b6100ac60048036038101906100a79190610c77565b61063c565b005b60606000600160008673ffffffffffffffffffffffffffffffffffffffff1673ffffffffffffffffffffffffffffffffffffffff16815260200190815260200160002080548060200260200160405190810160405280929190818152602001828054801561013b57602002820191906000526020600020905b815481526020019060010190808311610127575b5050505050905060008151905060008085836101579190610d1a565b14610163576001610166565b60005b60ff1685836101759190610d7a565b61017f9190610dab565b9050808611156101c4576040517f08c379a00000000000000000000000000000000000000000000000000000000081526004016101bb90610e3c565b60405180910390fd5b6000856001886101d49190610e5c565b6101de9190610e90565b905060008387836101ef9190610dab565b116102055786826102009190610dab565b610207565b835b9050600082826102179190610e5c565b67ffffffffffffffff8111156102305761022f610ed2565b5b60405190808252806020026020018201604052801561026957816020015b610256610892565b81526020019060019003908161024e5790505b50905060008390505b828110156103df576000808883815181106102905761028f610f01565b5b602002602001015181526020019081526020016000206040518060600160405290816000820180546102c190610f5f565b80601f01602080910402602001604051908101604052809291908181526020018280546102ed90610f5f565b801561033a5780601f1061030f5761010080835404028352916020019161033a565b820191906000526020600020905b81548152906001019060200180831161031d57829003601f168201915b505050505081526020016001820160009054906101000a900473ffffffffffffffffffffffffffffffffffffffff1673ffffffffffffffffffffffffffffffffffffffff1673ffffffffffffffffffffffffffffffffffffffff1681526020016002820154815250508285836103b09190610e5c565b815181106103c1576103c0610f01565b5b602002602001018190525080806103d790610f90565b915050610272565b508096505050505050509392505050565b600080600083815260200190815260200160002060405180606001604052908160008201805461041f90610f5f565b80601f016020809104026020016040519081016040528092919081815260200182805461044b90610f5f565b80156104985780601f1061046d57610100808354040283529160200191610498565b820191906000526020600020905b81548152906001019060200180831161047b57829003601f168201915b505050505081526020016001820160009054906101000a900473ffffffffffffffffffffffffffffffffffffffff1673ffffffffffffffffffffffffffffffffffffffff1673ffffffffffffffffffffffffffffffffffffffff1681526020016002820154815250509050600073ffffffffffffffffffffffffffffffffffffffff16816020015173ffffffffffffffffffffffffffffffffffffffff1603610576576040517f08c379a000000000000000000000000000000000000000000000000000000000815260040161056d90611024565b60405180910390fd5b8273ffffffffffffffffffffffffffffffffffffffff16816020015173ffffffffffffffffffffffffffffffffffffffff16146105e8576040517f08c379a00000000000000000000000000000000000000000000000000000000081526004016105df906110b6565b60405180910390fd5b818373ffffffffffffffffffffffffffffffffffffffff167fc6cb61ba2843798e5e363b4b3b6f6a48ae0432a76dc0cedb6b97f22d51b75c634260405161062f91906110e5565b60405180910390a3505050565b60008473ffffffffffffffffffffffffffffffffffffffff1660008084815260200190815260200160002060010160009054906101000a900473ffffffffffffffffffffffffffffffffffffffff1673ffffffffffffffffffffffffffffffffffffffff1614905080156106e5576040517f08c379a00000000000000000000000000000000000000000000000000000000081526004016106dc90611172565b60405180910390fd5b604051806060016040528085858080601f016020809104026020016040519081016040528093929190818152602001838380828437600081840152601f19601f8201169050808301925050505050505081526020018673ffffffffffffffffffffffffffffffffffffffff168152602001428152506000808481526020019081526020016000206000820151816000019081610781919061133e565b5060208201518160010160006101000a81548173ffffffffffffffffffffffffffffffffffffffff021916908373ffffffffffffffffffffffffffffffffffffffff16021790555060408201518160020155905050600160008673ffffffffffffffffffffffffffffffffffffffff1673ffffffffffffffffffffffffffffffffffffffff168152602001908152602001600020829080600181540180825580915050600190039060005260206000200160009091909190915055818573ffffffffffffffffffffffffffffffffffffffff167f22c21306dac2a2a7501abe47bbe6267c0510618065eecad971da6b398682cc744260405161088391906110e5565b60405180910390a35050505050565b604051806060016040528060608152602001600073ffffffffffffffffffffffffffffffffffffffff168152602001600081525090565b600080fd5b600080fd5b600073ffffffffffffffffffffffffffffffffffffffff82169050919050565b60006108fe826108d3565b9050919050565b61090e816108f3565b811461091957600080fd5b50565b60008135905061092b81610905565b92915050565b6000819050919050565b61094481610931565b811461094f57600080fd5b50565b6000813590506109618161093b565b92915050565b6000806000606084860312156109805761097f6108c9565b5b600061098e8682870161091c565b935050602061099f86828701610952565b92505060406109b086828701610952565b9150509250925092565b600081519050919050565b600082825260208201905092915050565b6000819050602082019050919050565b600081519050919050565b600082825260208201905092915050565b60005b83811015610a20578082015181840152602081019050610a05565b60008484015250505050565b6000601f19601f8301169050919050565b6000610a48826109e6565b610a5281856109f1565b9350610a62818560208601610a02565b610a6b81610a2c565b840191505092915050565b610a7f816108f3565b82525050565b610a8e81610931565b82525050565b60006060830160008301518482036000860152610ab18282610a3d565b9150506020830151610ac66020860182610a76565b506040830151610ad96040860182610a85565b508091505092915050565b6000610af08383610a94565b905092915050565b6000602082019050919050565b6000610b10826109ba565b610b1a81856109c5565b935083602082028501610b2c856109d6565b8060005b85811015610b685784840389528151610b498582610ae4565b9450610b5483610af8565b925060208a01995050600181019050610b30565b50829750879550505050505092915050565b60006020820190508181036000830152610b948184610b05565b905092915050565b6000819050919050565b610baf81610b9c565b8114610bba57600080fd5b50565b600081359050610bcc81610ba6565b92915050565b60008060408385031215610be957610be86108c9565b5b6000610bf78582860161091c565b9250506020610c0885828601610bbd565b9150509250929050565b600080fd5b600080fd5b600080fd5b60008083601f840112610c3757610c36610c12565b5b8235905067ffffffffffffffff811115610c5457610c53610c17565b5b602083019150836001820283011115610c7057610c6f610c1c565b5b9250929050565b60008060008060608587031215610c9157610c906108c9565b5b6000610c9f8782880161091c565b945050602085013567ffffffffffffffff811115610cc057610cbf6108ce565b5b610ccc87828801610c21565b93509350506040610cdf87828801610bbd565b91505092959194509250565b7f4e487b7100000000000000000000000000000000000000000000000000000000600052601260045260246000fd5b6000610d2582610931565b9150610d3083610931565b925082610d4057610d3f610ceb565b5b828206905092915050565b7f4e487b7100000000000000000000000000000000000000000000000000000000600052601160045260246000fd5b6000610d8582610931565b9150610d9083610931565b925082610da057610d9f610ceb565b5b828204905092915050565b6000610db682610931565b9150610dc183610931565b9250828201905080821115610dd957610dd8610d4b565b5b92915050565b600082825260208201905092915050565b7f50616765206e756d626572206578636565647320746f74616c20706167657300600082015250565b6000610e26601f83610ddf565b9150610e3182610df0565b602082019050919050565b60006020820190508181036000830152610e5581610e19565b9050919050565b6000610e6782610931565b9150610e7283610931565b9250828203905081811115610e8a57610e89610d4b565b5b92915050565b6000610e9b82610931565b9150610ea683610931565b9250828202610eb481610931565b91508282048414831517610ecb57610eca610d4b565b5b5092915050565b7f4e487b7100000000000000000000000000000000000000000000000000000000600052604160045260246000fd5b7f4e487b7100000000000000000000000000000000000000000000000000000000600052603260045260246000fd5b7f4e487b7100000000000000000000000000000000000000000000000000000000600052602260045260246000fd5b60006002820490506001821680610f7757607f821691505b602082108103610f8a57610f89610f30565b5b50919050565b6000610f9b82610931565b91507fffffffffffffffffffffffffffffffffffffffffffffffffffffffffffffffff8203610fcd57610fcc610d4b565b5b600182019050919050565b7f436572746966696361746520646f6573206e6f74206578697374000000000000600082015250565b600061100e601a83610ddf565b915061101982610fd8565b602082019050919050565b6000602082019050818103600083015261103d81611001565b9050919050565b7f436572746966696361746520646f6573206e6f742062656c6f6e6720746f207460008201527f6865207370656369666965642075736572000000000000000000000000000000602082015250565b60006110a0603183610ddf565b91506110ab82611044565b604082019050919050565b600060208201905081810360008301526110cf81611093565b9050919050565b6110df81610931565b82525050565b60006020820190506110fa60008301846110d6565b92915050565b7f436572746966696361746520616c72656164792065786973747320666f72207460008201527f6869732075736572000000000000000000000000000000000000000000000000602082015250565b600061115c602883610ddf565b915061116782611100565b604082019050919050565b6000602082019050818103600083015261118b8161114f565b9050919050565b60008190508160005260206000209050919050565b60006020601f8301049050919050565b600082821b905092915050565b6000600883026111f47fffffffffffffffffffffffffffffffffffffffffffffffffffffffffffffffff826111b7565b6111fe86836111b7565b95508019841693508086168417925050509392505050565b6000819050919050565b600061123b61123661123184610931565b611216565b610931565b9050919050565b6000819050919050565b61125583611220565b61126961126182611242565b8484546111c4565b825550505050565b600090565b61127e611271565b61128981848461124c565b505050565b5b818110156112ad576112a2600082611276565b60018101905061128f565b5050565b601f8211156112f2576112c381611192565b6112cc846111a7565b810160208510156112db578190505b6112ef6112e7856111a7565b83018261128e565b50505b505050565b600082821c905092915050565b6000611315600019846008026112f7565b1980831691505092915050565b600061132e8383611304565b9150826002028217905092915050565b611347826109e6565b67ffffffffffffffff8111156113605761135f610ed2565b5b61136a8254610f5f565b6113758282856112b1565b600060209050601f8311600181146113a85760008415611396578287015190505b6113a08582611322565b865550611408565b601f1984166113b686611192565b60005b828110156113de578489015182556001820191506020850194506020810190506113b9565b868310156113fb57848901516113f7601f891682611304565b8355505b6001600288020188555050505b50505050505056fea2646970667358221220f4566c61493dc8884ce6651f8dcb2381964474a40d831aa774d6a025860f140564736f6c63430008140033",
  "immutableReferences": {},
  "source": "// SPDX-License-Identifier: MIT\npragma solidity >=0.4.22 <0.9.0;\n\ncontract CertificateContract {\n\n  struct file {\n    string cid;\n    address owner;\n    uint256 timestamp;\n  }\n\n  mapping (bytes32 => file) private _certificates;\n  mapping (address => bytes32[]) private _userCertificates;\n\n\n  event CertificateCreated(address indexed owner, bytes32 indexed hash, uint256 timestamp);\n  event CertificateValidated(address indexed owner, bytes32 indexed hash, uint256 timestamp);\n\n\n  function addCertificate(address userAddress, string calldata cid, bytes32 hash) public {\n\n    bool certificateAlreadyExists = _certificates[hash].owner == userAddress;\n\n    if (certificateAlreadyExists) {\n      revert(\"Certificate already exists for this user\");\n    }\n\n    _certificates[hash] = file({\n      cid: cid,\n      owner: userAddress,\n      timestamp: block.timestamp\n    });\n\n    _userCertificates[userAddress].push(hash);\n    emit CertificateCreated(userAddress, hash, block.timestamp);\n  }\n\n\n  function getCertificates(address userAddress, uint256 page, uint256 perPage) public view returns (file[] memory) {\n\n    bytes32[] memory userCertificatesHashes = _userCertificates[userAddress];\n\n    uint256 totalCertificates = userCertificatesHashes.length;\n    uint256 maxPages = totalCertificates / perPage + (totalCertificates % perPage == 0 ? 0 : 1);\n\n    if (page > maxPages) {\n      revert(\"Page number exceeds total pages\");\n    }\n\n    uint256 offset = (page - 1) * perPage;\n    uint256 limit = offset + perPage > totalCertificates ? totalCertificates : offset + perPage;\n\n    file[] memory paginatedCertificates = new file[](limit - offset);\n\n    for (uint256 i = offset; i < limit; i++) {\n      paginatedCertificates[i - offset] = _certificates[userCertificatesHashes[i]];\n    }\n\n    return paginatedCertificates;\n  }\n\n\n  function validateCertificate(address userAddress, bytes32 hash) public {\n    file memory certificate = _certificates[hash];\n\n    if (certificate.owner == address(0)) {\n      revert(\"Certificate does not exist\");\n    }\n\n    if (certificate.owner != userAddress) {\n      revert(\"Certificate does not belong to the specified user\");\n    }\n\n    emit CertificateValidated(userAddress, hash, block.timestamp);\n  }\n\n}\n",
  "sourcePath": "/app/contracts/CertificateContract.sol",
  "compiler": {
    "name": "solc",
    "version": "0.8.20+commit.a1b79de6.Emscripten.clang"
  },
  "schemaVersion": "3.4.16",
  "updatedAt": "2026-03-01T23:07:54.819Z",
  "networkType": "ethereum",
  "devdoc": {
    "kind": "dev",
    "methods": {},
    "version": 1
  },
  "userdoc": {
    "kind": "user",
    "methods": {},
    "version": 1
  }
}